:020000040000FA
:060000000A128A11162805
:10000800FE00030E83160313A0000408A1000A08CB
:10001800A200831203137F0883160313A3000A1296
:100028008A11702F0A128A1119288313E930FD00EA
:100038001530FE009D30FF00DB3084000A168A115F
:10004800C0250A128A11831790308400B8300A1626
:100058008A114F250A128A118313C9308400DB30B4
:100068000A168A114F250A128A1183010A168A1163
:10007800292E8312031323088039FF007F08AD005F
:100088002308A8002807FF007F08B300A21F4D28F7
:100098004E284F283314330803195328542863284B
:1000A800330A031D5828592861280030A30000305E
:1000B800A2000030A1000030A000A2176B28003079
:1000C800A3000030A2000030A1000030A0002708E3
:1000D8008039FF007F08AD062708A8002807FF0021
:1000E8007F08B200A61F79287A287B2832143208A4
:1000F80003197F2880288F28320A031D8428852821
:100108008D280030A7000030A6000030A500003080
:10011800A400A61797280030A7000030A6000030DA
:10012800A5000030A400320803199B289C28A128A8
:100138003308031DA028A128AA280030A3000030F6
:10014800A2000030A1000030A0009D2B2008FF0075
:100158007F08F00026080A168A118D260A128A11CD
:10016800710883120313B9007008B8003808A80092
:10017800A901AA01AB012B08B1002A08B00029087F
:10018800AF002808AE003908A800A901AA01AB01F0
:100198002B08B7002A08B6002908B5002808B400BB
:1001A8002108FF007F08F00025080A168A118D260D
:1001B8000A128A11710883120313B9007008B80073
:1001C8003808A800A901AA01AB012808AE07290828
:1001D80003110318013E0319F228AF072A08031177
:1001E8000318013E0319F928B0072B080311031857
:1001F800013E03190029B1073908A800A901AA017D
:10020800AB012808B407290803110318013E031994
:100218000E29B5072A0803110318013E03191529E9
:10022800B6072B0803110318013E03191C29B70749
:100238002208FF007F08F00024080A168A118D267C
:100248000A128A11710883120313B9007008B800E2
:100258003808A800A901AA01AB012808AE07290897
:1002680003110318013E03193A29AF072A0803119D
:100278000318013E03194129B0072B08031103187D
:10028800013E03194829B1073908A800A901AA01A4
:10029800AB012808B407290803110318013E031904
:1002A8005629B5072A0803110318013E03195D29C9
:1002B800B6072B0803110318013E03196429B70771
:1002C8000830A8000310AE0DAF0DB00DB10DA80B8E
:1002D80066292108FF007F08F00024080A168A1101
:1002E8008D260A128A11710883120313B900700847
:1002F800B8003808A8003908A900AA01AB012808E5
:10030800AE07290803110318013E03198C29AF070A
:100318002A0803110318013E03199329B0072B0873
:1003280003110318013E03199A29B1072008FF0099
:100338007F08F00025080A168A118D260A128A11EC
:10034800710883120313B9007008B8003808A800B0
:100358003908A900AA01AB012808AE07290803112A
:100368000318013E0319B929AF072A080311031816
:10037800013E0319C029B0072B0803110318013ED9
:100388000319C729B1070830A8000310AE0DAF0D37
:10039800B00DB10DA80BC9292008FF007F08F00097
:1003A80024080A168A118D260A128A1171088312E6
:1003B8000313B9007008B8003808A8003908A90064
:1003C800AA01AB012808AE07290803110318013E4A
:1003D8000319EF29AF072A0803110318013E03196F
:1003E800F629B0072B0803110318013E0319FD294C
:1003F800B1072108FF007F08F00026080A168A11B5
:100408008D260A128A11710883120313B900700825
:10041800B8003808A8003908A900AA01AB012808C3
:10042800B407290803110318013E03191C2AB5074C
:100438002A0803110318013E0319232AB6072B08BB
:1004480003110318013E03192A2AB7072208FF00DF
:100458007F08F00025080A168A118D260A128A11CB
:10046800710883120313B9007008B8003808A8008F
:100478003908A900AA01AB012808B4072908031103
:100488000318013E0319492AB5072A08031103185E
:10049800013E0319502AB6072B0803110318013E21
:1004A8000319572AB7072208FF007F08F00026081B
:1004B8000A168A118D260A128A11710883120313EB
:1004C800B9007008B8003808A8003908A900AA01BE
:1004D800AB0108300310A80DA90DAA0DAB0DFF3E06
:1004E800031D6E2A2808B407290803110318013EC2
:1004F80003197F2AB5072A0803110318013E0319B7
:10050800862AB6072B0803110318013E03198D2A02
:10051800B7072E08A8002F08A9003008AA0031083C
:10052800AB0018300310AB0CAA0CA90CA80CFF3EAA
:10053800031D962A2808B407290803110318013E49
:100548000319A72AB5072A0803110318013E03193E
:10055800AE2AB6072B0803110318013E0319B52A62
:10056800B7070830A8000310AE0DAF0DB00DB10DE0
:10057800A80BB72A33083207A800A901A90D280833
:10058800823EB80029080318013EFF3EB900E92A57
:100598000130A8000310B40DB50DB60DB70DA80BAA
:1005A800CE2AB11FD82AD92ADA2A34140130A80051
:1005B8000310AE0DAF0DB00DB10DA80BDC2AFF3046
:1005C800B8070318B90AFF30B907B61FEC2AED2A95
:1005D800CC2AB201B11FF12AF22A0E2BFF302E05C8
:1005E800A800FF302F05A900FF303005AA007F3092
:1005F8003105AB002B082A04290428040319052B0C
:10060800062B092BB201B20A0E2B341C0C2B0D2B16
:100618000E2B062B32080319122B132B442B0130F7
:10062800B407003003180130B50700300318013053
:10063800B607003003180130B707371C242B252BC9
:10064800442B3408A8003508A9003608AA00370842
:10065800AB000130AC002B0DAB0CAA0CA90CA80CFC
:10066800AC0B2F2B2B08B7002A08B6002908B500B9
:100678002808B4000130B8070318B90A0030B907D0
:100688003908803AFF0080307F02031D4D2BFF3070
:100698003802031C502B512B5C2B7F308312031321
:1006A800B7008030B6000030B5000030B400912BA0
:1006B800831203133908803AFF0080307F02031D3C
:1006C800672B0130380203186A2B6B2B772B00300D
:1006D80083120313B7000030B6000030B5000030B5
:1006E800B400AD01912B831203133808FF007F0873
:1006F800B300FF30B405FF30B5057F30B6050030D4
:10070800B705331C882B892B8A2BB6173308A8000A
:100718000310280CFF007F08B7002D08FF007F0892
:10072800B7043708A3003608A2003508A10034082A
:10073800A000080073088039FF007F08F8007308DC
:1007480083120313A0002007FF007F08FA00F21F9E
:10075800AE2BAF2BB02B7A147A080319B42BB52B18
:10076800C52B7A0A031DB92BBA2BC22B0030F30014
:100778000030F2000030F1000030F000F217F30111
:10078800CD2B0030F3000030F2000030F1000030D3
:10079800F00077088039FF007F08F90079087806AB
:1007A8000319D72BD82BD92B78177708A000200747
:1007B800FF007F08F900F61FE22BE32BE42B7914E6
:1007C80079080319E82BE92BF92B790A031DED2B7E
:1007D800EE2BF62B0030F7000030F6000030F50065
:1007E8000030F400F617F701012C0030F700003054
:1007F800F6000030F5000030F4007A08790203189A
:10080800062C072C4B2C781F0A2C0B2C0F2C803015
:10081800FF007F08F8067A08FF007F08FB007908C8
:10082800FF007F08FA007B08FF007F08F9007008C6
:10083800FF007F08FB007408FF007F08F0007B08BA
:10084800FF007F08F4007108FF007F08FB007508AF
:10085800FF007F08F1007B08FF007F08F5007208A1
:10086800FF007F08FB007608FF007F08F2007B0886
:10087800FF007F08F6007308FF007F08FB00770879
:10088800FF007F08F3007B08FF007F08F700FB01EB
:100898007908A000A1012108A3007A082002A2007B
:1008A800031CA3032308803AFF0080307F02031D46
:1008B8005F2C1A302202031C622C632CA22C7308B2
:1008C800720471047004031D6A2C6C2C01306D2CA9
:1008D8000030FF007F08FB000030F3000030F2001A
:1008E8000030F1000030F0007908FF007F08FA00BE
:1008F800A82C7B1C802C812C8C2C7B088312031346
:10090800A0000310200C0138FF007F08FB008E2C8C
:100918000310FB0C701C912C922C932CFB170130AC
:1009280083120313A000730DF30CF20CF10CF00CFE
:10093800A00B972C0130FF007F08FA0779087A028C
:10094800031CA72CA82C7D2C781BAB2CAC2CFB2CC7
:100958007A08031DB02CB12CBA2C0030F3000030FB
:10096800F2000030F1000030F000312E7408F0077A
:10097800750803110318013E0319C32CF107760803
:1009880003110318013E0319CA2CF2077708031153
:100998000318013E0319D12CF307731CD42CD52C52
:1009A800B32D7B1CD82CD92CE42C7B088312031381
:1009B800A0000310200C0138FF007F08FB00E62C84
:1009C8000310FB0C701CE92CEA2CEB2CFB170130F4
:1009D80083120313A000730DF30CF20CF10CF00C4E
:1009E800A00BEF2C0130FF007F08FA07B32D730826
:1009F800803AFF007708803A7F02031D0D2D7608A4
:100A08007202031D0D2D75087102031D0D2D74084A
:100A180070020318102D112D6B2DFF308312031354
:100A2800A000FF30A100FF30A200FF30A30074082F
:100A3800A4007508A5007608A6007708A700700826
:100A4800A4027108031C710F2A2D2B2DA502720810
:100A5800031C720F302D312DA6027308031C730F6F
:100A6800362D372DA7022408A00725080318250FBF
:100A78003E2D3F2DA10726080318260F442D452D8E
:100A8800A20727080318270AA3072308F300220848
:100A9800F2002108F1002008F0008030FF007F08F4
:100AA800F806FB09FB0A7B08031D5B2D5C2D792DDD
:100AB8000130F007003003180130F1070030031847
:100AC8000130F207003003180130F307792D74085C
:100AD800F0027508031C750FF1027608031C760FE7
:100AE800F2027708031C770FF3027308720471048B
:100AF8007004031D802D812DAF2D7B08031D852DCE
:100B0800862DAF2D0030F3000030F2000030F100E8
:100B18000030F000312E013083120313A0000310BF
:100B2800F00DF10DF20DF30DA00B932DFB1F9D2D74
:100B38009E2D9F2D70147B1CA22DA32DA62D031472
:100B4800FB0DA82D0310FB0D7A080319AC2DAD2D54
:100B5800AF2D0130FA02F21FB22DB32D8F2DF901FE
:100B6800FB1FB72DB82DC62D7B087F390319BD2D66
:100B7800BE2DC12DF901F90AC62D701CC42DC52D35
:100B8800C62DBE2D79080319CA2DCB2D012E013093
:100B9800F007003003180130F10700300318013066
:100BA800F207003003180130F307731CDC2DDD2D2C
:100BB800012E700883120313A0007108A1007208A7
:100BC800A2007308A3000130A400230DA30CA20CFB
:100BD800A10CA00CA40BE92D2308F3002208F200B5
:100BE8002108F1002008F0007A0A0319FC2DFD2DD8
:100BF800012E0130FF007F08FA077A0A0319052E33
:100C0800062E0B2E7A08031D0A2E0B2E192E0030E5
:100C1800F3000030F2000030F1000030F0007A08F4
:100C2800031D172E182E192EF8017A1C1C2E1D2EA6
:100C38001F2EF217232E7F30FF007F08F2057A0857
:100C480083120313A0000310200CFF007F08F30099
:100C5800F81F2F2E302E312EF3170800F8007808D1
:100C68000319372E382E4C2EF31F3B2E3C2E4C2EBC
:100C78007009FA007109FB007209FC007309FD0094
:100C8800FA0A0319FB0A0319FC0A0319FD0A542E70
:100C98007308FD007208FC007108FB007008FA0078
:100CA8007308720471047004031D5B2E5C2E652E9C
:100CB8000030F3000030F2000030F1000030F000A6
:100CC800EB2E9630FF007F08F900772E0130FF00E9
:100CD8007F08F90701300310FD0CFC0CFB0CFA0C23
:100CE800FF3E031D6F2EFE307D05031D7C2E7D2EDD
:100CF8006A2E992E0130FF007F08F9070130FA07A4
:100D0800003003180130FB07003003180130FC07DE
:100D1800003003180130FD0701300310FD0CFC0CF6
:100D2800FB0CFA0CFF3E031D912EFF307D05031DC1
:100D38009E2E9F2E7E2EAB2E0130F9020130F4003C
:100D48000310FA0DFB0DFC0DFD0DF40BA42EFC1B7E
:100D5800AE2EAF2EB52E023079020318B42EB52E62
:100D6800A02E7918B82EB92EC12EFF30FA05FF3003
:100D7800FB057F30FC05FF30FD050310F90C7908F1
:100D8800F400F501F601F70118300310F40DF50D24
:100D9800F60DF70DFF3E031DC92E7408FA047508F9
:100DA800FB047608FC047708FD0478080319DD2E97
:100DB800DE2EE32EF31FE12EE22EE32EFD177D0833
:100DC800F3007C08F2007B08F1007A08F0000800C4
:100DD800831603134F085004031DF32EF42EFF2E21
:100DE8000A168A1146260A128A110130831603133D
:100DF800CF000030D0000A168A11CF250A128A11B6
:100E08000A3083160313AB000030AC000A30A4008C
:100E18000030A5006808A7006708A6000A168A110E
:100E280061270A128A11831603132508AE002408C5
:100E3800AD000A168A1125270A128A118316031390
:100E48002C08BD002B08BC000A30AB000030AC00F9
:100E58006808AE006708AD000A168A1125270A122D
:100E68008A11831603132C08BF002B08BE008312B7
:100E780003130516831603133C08DB3E8400831313
:100E88000008831203138800073083160313BB007E
:100E98007C30BA00BA0B4E2FBB0B4E2F00008312CA
:100EA800031305128516831603133E08DB3E8400E0
:100EB8008313000883120313880007308316031373
:100EC800BB007C30BA00BA0B672FBB0B672F000042
:100ED8008312031385120800831203130C1C752F49
:100EE800762F832F0A128A15CC200A128A110B300A
:100EF800831203138F00DC308E000C108B178C1CB0
:100F0800862F872FB12F65309100831603134C0865
:100F1800803AFF0080307F02031D942FC8304B02B7
:100F2800031C972F982FA62F83160313CB01CC01F0
:100F3800CD09CE094D0C83120313031C8610031828
:100F48008614AE2F013083160313CB070318CC0A7F
:100F58000030CC0783128C108B178B1CB42FB52F45
:100F6800DF2F83160313C909CA0949084A0403195C
:100F7800BE2FBF2FCB2F8312031310101211850120
:100F88008601870188018B108B176300DD2F4908C4
:100F98004A04031DD02FD12FDD2F83120313101401
:100FA80012150130850001308600013087000130BC
:100FB80088008B108B1783160313230883120313DF
:100FC800FF008316031322088A0021088400200EDC
:100FD8008300FE0E7E0E0900023083120313920076
:100FE80064309100831603138C148B170B1783122C
:060FF800031312150800AE
:10100000831603138610080083160313550867021E
:10101000F0005608031C560A6802F1000030710205
:10102000053003197002031C162817281D28831287
:1010300003138716071112155D2867085502F00083
:101040006808031C680A5602F1000030710205307E
:1010500003197002031C2D282E2835288312031330
:1010600087120715121186145D2867085502F000D3
:101070006808031C680A5602F1000030710206304D
:1010800003197002031C4528462857285508670293
:10109000F0005608031C560A6802F1000030710285
:1010A000053003197002031C562857285D28831247
:1010B000031387120711121186104130F100EE3030
:1010C000F000F00B6128F10B612800000800831686
:1010D000031355086702A4005608031C560A680249
:1010E000A50000302502053003192402031C7928CD
:1010F0007A28802883120313871607111215C02837
:1011000067085502A4006808031C680A5602A50077
:1011100000302502053003192402031C9028912871
:101120009828831203138712071512118614C028FA
:1011300067085502A4006808031C680A5602A50047
:1011400000302502063003192402031CA828A92810
:10115000BA2855086702A4005608031C560A6802FC
:10116000A50000302502053003192402031CB9280C
:10117000BA28C02883120313871207111211861090
:10118000413083160313A500ED30A400A40BC6283C
:10119000A50BC628CB2808000A168A11EA260A12CF
:1011A0008A15710883160313DA007008D9005908EC
:1011B000F0005A08F100F201F30100300A128A111E
:1011C00032260A128A15730883120313A7007208C5
:1011D000A6007108A5007008A4004030A300A0304C
:1011E000A2000030A1000030A0000A128A113D20A8
:1011F0000A128A15831203132308C1002208C000B3
:101200002108BF002008BE004130BD002330BC00D3
:10121000D730BB000A30BA000A128A15D5230A1249
:101220008A15831203133D08D7003C08D6003B08FB
:10123000D5003A08D4000A128A1559230A128A15D1
:1012400083120313550883160313D8008312031364
:10125000540883160313D7000A128A15B2250A12FE
:101260008A150800003083160313B0000030AF0069
:101270000030AE000030AD00270826042504240409
:101280000319432944299129B101B10A5429013094
:10129000AC000310A40DA50DA60DA70DAC0B49299C
:1012A0000130FF007F08B107A71F57295829472998
:1012B0000130AC000310AD0DAE0DAF0DB00DAC0B99
:1012C0005A2927082B02031D6F2926082A02031D0D
:1012D0006F2925082902031D6F2924082802031CF1
:1012E0007229732982292408A8022508031C250FC6
:1012F000A9022608031C260FAA022708031C270F91
:10130000AB022D1401300310A70CA60CA50CA40CE5
:10131000FF3E031D83290130B102031D902991294D
:1013200058293008A7002F08A6002E08A5002D0870
:10133000A40008000A168A1169250A128A15A5292F
:101340000A168A1160250A128A15A0300A168A1117
:1013500010260A128A15003A031DAF29B029A029C8
:101360008316031326080A168A1110260A128A15F4
:101370008316031325080A168A1110260A128A15E5
:101380000A168A1160250A128A15A1300A168A11D6
:1013900010260A128A1583160313AD01AE01F42933
:1013A0000A168A11F9250A128A15FF0083160313FB
:1013B0002D082707AB002E0803182E0A2807AC00BB
:1013C0002B08840083172C1C83137F0880000A16C7
:1013D0008A1184250A128A15013083160313AD077A
:1013E0000318AE0A0030AE072A082E02031DFA29A0
:1013F00029082D02031CFD29FE29D0290A168A116D
:1014000072250A128A1508000A3083160313AB00EE
:101410000030AC000A30A4000030A5005808A70036
:101420005708A6000A168A1161270A128A15831620
:1014300003132508AE002408AD000A168A112527DB
:101440000A128A15831603132C08B3002B08B20066
:101450000A30AB000030AC005808AE005708AD00B1
:101460000A168A1125270A128A15831603132C08D7
:10147000B5002B08B400831203130516831603135B
:101480003208DB3E840083130008831203138800B4
:10149000073083160313B1007C30B000B00B4E2A26
:1014A000B10B4E2A00008312031305128516831612
:1014B00003133408DB3E84008313000883120313F4
:1014C0008800073083160313B1007C30B000B00BE6
:1014D000672AB10B672A00008312031385120800E4
:1014E0000A128A11EC260A128A1541308316031358
:1014F000C100ED30C000C00B7B2AC10B7B2A802AC3
:1015000083160313C501C601CE2A83160313C70130
:10151000C8010A128A11EC260A128A150A128A15C3
:10152000E1220A128A15831603132508C400240831
:10153000C3004308440403199E2A9F2AA12AC50117
:10154000C6010130C7070318C80A0030C807480899
:10155000803AFF0080307F02031DB02A64304702CA
:10156000031CB32AB42A892A033083160313C2004A
:101570008A30C1005530C000C00BBC2AC10BBC2A48
:10158000C20BBC2A83120313051185110130831687
:101590000313C5070318C60A0030C6074608803A79
:1015A000FF0080307F02031DD72A05304502031C4F
:1015B000DA2ADB2A852A0A128A1567200A128A1576
:1015C000080083120313061AE62AE72A242B213087
:1015D00083160313A7007530A600A60BED2AA70BF0
:1015E000ED2AF22A00308316031368024B300319E8
:1015F00067020318FC2AFD2A1D2B213083160313D2
:10160000A7007530A600A60B032BA70B032B082BF6
:10161000831603136708053EE70068080318013EB8
:10162000003EE800213083160313A7007530A600A2
:10163000A60B182BA70B182B1D2B01308316031399
:10164000A4000030A500582B861A272B282B542BDA
:10165000213083160313A7007530A600A60B2E2B8E
:10166000A70B2E2B332B0030831603136802243074
:1016700003196702031C3D2B3E2B1D2B21308316C3
:101680000313A7007530A600A60B442BA70B442B11
:10169000492B831603136708FB3EE700680803180D
:1016A000013EFF3EE800122B83160313A401A5019F
:1016B0000800031083120313560D570DFF007F0817
:1016C000DD005D08031D652B662B6F2B0030D700F6
:1016D0000030D6000030D5000030D400D42B5408A0
:1016E000D8005508D9005608DA005708DB001F302B
:1016F0000310DB0CDA0CD90CD80CFF3E031D782B41
:101700005808FF007F08DC00D617FF30D405FF30F3
:10171000D505FF30D6050030D7059630DD02DD1F38
:10172000922B932BAD2B5D08803A973E0318992B93
:101730009A2B9B2B662B01300310D70CD60CD50CA3
:10174000D40CFF3E031D9C2B0130FF007F08DD07FA
:10175000031DAB2BAC2B9B2BC42B20305D02031C39
:10176000B22BB32BBF2B662B0130D8000310D40D46
:10177000D50DD60DD70DD80BB62B0130DD025D0887
:10178000031DC32BC42BB42B5C080319C82BC92B16
:10179000D42BD409D509D609D709D40A0319D50AF7
:1017A0000319D60A0319D70A080083120313410844
:1017B0008039FF007F08CB004108C2004207FF00CC
:1017C0007F08D200C01FE52BE62BE72B52145208EE
:1017D0000319EB2BEC2BFC2B520A031DF02BF12BE6
:1017E000F92B0030C1000030C0000030BF000030D5
:1017F000BE00C017C101042C0030C1000030C00081
:101800000030BF000030BE003D088039FF007F0877
:10181000CB063D08C2004207FF007F08D300BC1F73
:10182000122C132C142C531453080319182C192C94
:10183000292C530A031D1D2C1E2C262C0030BD0004
:101840000030BC000030BB000030BA00BC17BD0146
:10185000312C0030BD000030BC000030BB00003037
:10186000BA003D083C043B043A04031D382C392CD3
:10187000522C0030C1000030C0000030BF000030EA
:10188000BE008030C0047F30C1044B08FF007F08D9
:10189000C1044108BD004008BC003F08BB003E0831
:1018A000BA00B12D5208031D562C572C602C003065
:1018B000BD000030BC000030BB000030BA00B12DCC
:1018C0005208C200C3014308C50053084202C400C5
:1018D000031CC50344087F3ECC0045080318013EA5
:1018E000003ECD004108CA004008C9003F08C800BA
:1018F0003E08C7000030C1000030C0000030BF000B
:101900000030BE000030D1000030D0000030CF00E9
:101910000030CE00D301D62C53080319902C912C03
:10192000B12C0130C2000310C70DC80DC90DCA0D7E
:10193000C20B932C0130C2000310BE0DBF0DC00DB1
:10194000C10DC20B9C2CD11FA62CA72CA82C3E1479
:101950000130C2000310CE0DCF0DD00DD10DC20B42
:10196000AA2C3D084A02031DBF2C3C084902031D56
:10197000BF2C3B084802031DBF2C3A084702031C3A
:10198000C22CC32CD22C51173A08C7023B08031CA7
:101990003B0FC8023C08031C3C0FC9023D08031C56
:1019A0003D0FCA020130FF007F08D3071A305302EF
:1019B000031CDB2CDC2C8C2C4A084904480447040B
:1019C0000319E32CE42C032D4E14032D0130C20027
:1019D0000310BE0DBF0DC00DC10DC20BE82CD11FF1
:1019E000F22CF32CF42C3E140130C2000310CE0D67
:1019F000CF0DD00DD10DC20BF62CFF30CC07031844
:101A0000CD0AFF30CD07C01F062D072DE62CD301D0
:101A1000D11F0B2D0C2D282DFF304E05C200FF309D
:101A20004F05C300FF305005C4007F305105C5008D
:101A3000450844044304420403191F2D202D232D7F
:101A4000D301D30A282D3E1C262D272D282D202DED
:101A5000530803192C2D2D2D5E2D0130BE070030AB
:101A600003180130BF07003003180130C0070030F1
:101A700003180130C107411C3E2D3F2D5E2D3E084D
:101A8000C2003F08C3004008C4004108C50001303F
:101A9000C600450DC50CC40CC30CC20CC60B492DA9
:101AA0004508C1004408C0004308BF004208BE000A
:101AB0000130CC070318CD0A0030CD074D08803A1D
:101AC000FF0080307F02031D672DFF304C02031C96
:101AD0006A2D6B2D792DFF3083120313CC0000305B
:101AE000CD000030C1000030C0000030BF00003029
:101AF000BE00831203134D08803AFF0080307F023E
:101B0000031D842D01304C020318872D882D952D3F
:101B100083120313CC01CD010030C1000030C0009E
:101B20000030BF000030BE00CB01831203134C080D
:101B3000FF007F08D200521C9E2D9F2DA12DC017A3
:101B4000A52D7F30FF007F08C0055208C20003109A
:101B5000420CFF007F08C1004B08FF007F08C10452
:101B6000492C0800831603135708F0005808F100A9
:101B7000F201F30100300A128A1132260A128A1584
:101B8000730883120313E6007208E5007108E4008D
:101B90007008E3000030EE000030ED000030EC0093
:101BA0000030EB00831603135408803AFF008030A6
:101BB0007F02031DDD2D0A3053020318E02DE12DB5
:101BC000A52E83160313530883120313DE0001307E
:101BD0000310DE0DFF3E031DE82D03105E0D903E49
:101BE0008400630883178000840A64088000840AE4
:101BF00065088000840A660880000130831603139C
:101C0000D3070318D40A0030D40783120313E10169
:101C1000E201412E831203136108DE00013003103C
:101C2000DE0DFF3E031D0F2E03105E0D903E84005F
:101C300083170008F000840A0008F100840A0008F5
:101C4000F200840A0008F3006E08F7006D08F60041
:101C50006C08F5006B08F4000A128A119E230A1220
:101C60008A15730883120313EE007208ED007108E1
:101C7000EC007008EB000130E1070318E20A0030C5
:101C8000E207831603135308013E83120313DE0099
:101C90008316031354080318013E003E83120313F6
:101CA000DF006208803AE0005F08803A6002031DAE
:101CB0005B2E5E086102031C5E2E5F2E0A2E8312CD
:101CC00003136E08C1006D08C0006C08BF006B08EC
:101CD000BE00831603135308F0005408F1000030CF
:101CE000F11BFF30F200F30001300A128A11322694
:101CF0000A128A15730883120313BD007208BC0010
:101D00007108BB007008BA000A128A15D5230A129E
:101D10008A15831203133D08D7003C08D6003B0800
:101D2000D5003A08D4000A128A1559230A128A15D6
:101D300083120313550883160313D600831203136B
:101D4000540883160313D500FA2F83160313520881
:101D5000803AFF0080307F02031DB02E0A3051020E
:101D60000318B32EB42E532F831603135108831276
:101D70000313DE0001300310DE0DFF3E031DBB2EFA
:101D800003105E0D903E8400630883178000840A70
:101D900064088000840A65088000840A6608800060
:101DA000013083160313D1070318D20A0030D2077B
:101DB00083120313E701E801831203136708DE00AF
:101DC00001300310DE0DFF3E031DE12E03105E0DFA
:101DD000903E840083170008F000840A0008F10098
:101DE000840A0008F200840A0008F3006E08F70075
:101DF0006D08F6006C08F5006B08F4000A128A11F1
:101E00009E230A128A15730883120313EE007208C8
:101E1000ED007108EC007008EB000130E7070318D3
:101E2000E80A0030E8076808803AFF0080307F0247
:101E3000031D1C2F0A306702031C1F2F202FDC2ECE
:101E4000831203136E08C1006D08C0006C08BF0048
:101E50006B08BE004130BD002030BC000030BB002C
:101E60000030BA000A128A15D5230A128A15831285
:101E700003133D08D7003C08D6003B08D5003A08BC
:101E8000D4000A128A1559230A128A1583120313E1
:101E9000550883160313D6008312031354088316C0
:101EA0000313D500FA2F831603135208803AFF005C
:101EB00080307F02031D5E2F0A305102031C612F08
:101EC000622FFA2F831203136608831603179300F9
:101ED00083120313650883160317920083120313FA
:101EE0006408831603179100831203136308831693
:101EF00003179000013083160313D1000030D20085
:101F000083120313E901EA01831203136908DE0057
:101F100001300310DE0DFF3E031D892F03105E0DFF
:101F2000903E840083170008F000840A0008F10046
:101F3000840A0008F200840A0008F3006E08F70023
:101F40006D08F6006C08F5006B08F4000A128A119F
:101F50009E230A128A15730883120313EE00720877
:101F6000ED007108EC007008EB000130E907031880
:101F7000EA0A0030EA076A08803AFF0080307F02F0
:101F8000031DC42F0A306902031CC72FC82F842FDA
:101F9000831203136E08C1006D08C0006C08BF00F7
:101FA0006B08BE004130BD002030BC000030BB00DB
:101FB0000030BA000A128A15D5230A128A15831234
:101FC00003133D08D7003C08D6003B08D5003A086B
:101FD000D4000A128A1559230A128A158312031390
:101FE000550883160313D60083120313540883166F
:101FF0000313D5000A128A1504200A128A15080054
:102A8200831603130614061686160800831603130C
:102A92008101D030FF007F088B04080064008001B0
:102AA200840A0406031900340406502D02308316EA
:102AB20003139F004130831203139F0008000A167C
:102AC2008A1190250A168A1183160313911408009D
:102AD2000A168A1190250A168A11831603131114F5
:102AE20008000A168A1190250A168A118316031302
:102AF200111508008316031387120711831203139B
:102B02008712071108008316031391120A168A11FD
:102B120090250A168A1183160313111608008316CC
:102B220003131419952D962D902D11081F39031D8D
:102B32009B2D9C2D902D08003F3406345B344F347E
:102B420066346D347D3407347F346F34203400347E
:102B52003C34003430308312031390000B308F006A
:102B6200DC308E00831603130C148B170B178312A1
:102B72000313101408007E088A007F0882000A16D8
:102B82008A11BC250A168A118000840A04087D066F
:102B920003190034FF0A0319FE0AC02D20308316E0
:102BA2000313A5000030A6006708A7006808A80064
:102BB2000230A9000030AA000A128A159A210A16C8
:102BC2008A1108000630831603139F008312031331
:102BD200051283160313051283120313851283163B
:102BE200031385128801FF30831203138800080043
:102BF2000A168A1190250A168A1183160313911553
:102C020083128C1D052E062E012E8C110A168A1196
:102C120090250A168A1183120313130808008316DB
:102C22000313A4000A168A1190250A168A11831624
:102C3200031324088312031393008C1D212E222ECA
:102C42001E2E8C11003083160313111B0130080055
:102C52000A168A1169260A168A110A128A1504228C
:102C62000A168A1183120313061E382E392E3D2EA0
:102C7200861A3C2E3D2E2E2E0A128A1570220A1614
:102C82008A112E2E0A128A11162800308316031377
:102C9200B5000130B4008630B300A030B2000A168D
:102CA2008A11B4260A168A11203083160313A5004E
:102CB2000030A6006708A7006808A8000230FF00DD
:102CC2007F08A9000A168A11A7270A168A11080086
:102CD2000A168A1141250A168A110A128A1500203B
:102CE2000A168A110A168A11E3250A168A110A1689
:102CF2008A117B250A168A110A168A11AB250A1631
:102D02008A110A128A11F0270A168A110A168A11E2
:102D120047250A168A110800F800F401F501700827
:102D2200F200F3017208F6007308F700781C9A2E7D
:102D32009B2EA12E7608F4070318F50A7708F507EB
:102D420001300310F60DF70DFF3E031DA22E0310F6
:102D5200F80C7808031DAE2EAF2E972E7508F100E1
:102D62007408F000080028308312031394008316BD
:102D7200031391013208B6003308B7003408B800D3
:102D82003508B90002300310B60DB70DB80DB90DF4
:102D9200FF3E031DC42E3908A7003808A6003708D5
:102DA200A5003608A4000130AB003130AA002D3056
:102DB200A9000030A8000A128A1532210A168A11C7
:102DC200831603132408FF3E930094018715071608
:102DD20008000A168A1157250A168A111130831221
:102DE20003139F000730F3007D30F200F20BF72E41
:102DF200F30BF72E831203131F151F19012F022F36
:102E0200FE2E831603131E08F20006300310F20C86
:102E1200FF3E031D072F7208F300F4018312031310
:102E22001E08F500F6010310F50DF60D0310F50D61
:102E3200F60D73087504F70074087604F800770835
:102E4200F0007808F1000800831603132B082C0405
:102E520003192C2F2D2F5C2FAF01AF0A3B2F01300E
:102E62000310AB0DAC0DFF3E031D312F0130FF00EF
:102E72007F08AF07AC1F3E2F3F2F302F2C082E02AA
:102E8200031D452F2B082D02031C482F492F4F2FBE
:102E92002B08AD022C08031CAE03AE020130031056
:102EA200AC0CAB0CFF3E031D502F0130AF02031DD3
:102EB2005B2F5C2F3F2F2E08AC002D08AB000800C3
:102EC20083160313A801A9012408250403196A2FF4
:102ED2006B2FA22FAA01AA0A792F01300310A40D89
:102EE200A50DFF3E031D6F2F0130FF007F08AA07CB
:102EF200A51F7C2F7D2F6E2F01300310A80DA90D69
:102F0200FF3E031D7E2F25082702031D8A2F24085A
:102F12002602031C8D2F8E2F952F2408A60225082A
:102F2200031CA703A702281401300310A50CA40C4C
:102F3200FF3E031D962F0130AA02031DA12FA22FCF
:102F42007D2F2908A5002808A40008000A168A1166
:102F520069250A168A11B22F0A168A1160250A16E5
:102F62008A11A0300A168A1110260A168A11003A0E
:102F7200031DBC2FBD2FAD2F8316031326080A167F
:102F82008A1110260A168A118316031325080A16B7
:102F92008A1110260A168A1183160313AC01AD0199
:102FA200ED2F2C082707AA002D0803182D0A280741
:102FB200AB002A08840083172B1C831300080A160F
:102FC2008A1110260A168A11013083160313AC07E0
:102FD2000318AD0A0030AD072908AA00AB012B087F
:102FE2002D02031DF62F2A082C02031CF92FFA2F9B
:0E2FF200D22F0A168A1172250A168A110800BB
:02400E00BA3FB7
:00000001FF
